{
  "contractName": "GiBeeToken",
  "abi": [
    {
      "inputs": [
        {
          "internalType": "uint256",
          "name": "initialSupply",
          "type": "uint256"
        }
      ],
      "stateMutability": "nonpayable",
      "type": "constructor"
    },
    {
      "anonymous": false,
      "inputs": [
        {
          "indexed": true,
          "internalType": "address",
          "name": "owner",
          "type": "address"
        },
        {
          "indexed": true,
          "internalType": "address",
          "name": "spender",
          "type": "address"
        },
        {
          "indexed": false,
          "internalType": "uint256",
          "name": "value",
          "type": "uint256"
        }
      ],
      "name": "Approval",
      "type": "event"
    },
    {
      "anonymous": false,
      "inputs": [
        {
          "indexed": true,
          "internalType": "address",
          "name": "user",
          "type": "address"
        },
        {
          "indexed": true,
          "internalType": "uint256",
          "name": "hiveId",
          "type": "uint256"
        },
        {
          "indexed": false,
          "internalType": "uint256",
          "name": "amount",
          "type": "uint256"
        },
        {
          "indexed": false,
          "internalType": "enum GiBeeToken.DistributionChoice",
          "name": "choice",
          "type": "uint8"
        }
      ],
      "name": "DistributionReceived",
      "type": "event"
    },
    {
      "anonymous": false,
      "inputs": [
        {
          "indexed": true,
          "internalType": "uint256",
          "name": "hiveId",
          "type": "uint256"
        },
        {
          "indexed": false,
          "internalType": "uint256",
          "name": "sharesTotal",
          "type": "uint256"
        }
      ],
      "name": "HiveCreated",
      "type": "event"
    },
    {
      "anonymous": false,
      "inputs": [
        {
          "indexed": true,
          "internalType": "uint256",
          "name": "hiveId",
          "type": "uint256"
        },
        {
          "indexed": false,
          "internalType": "uint256",
          "name": "honeyAmount",
          "type": "uint256"
        }
      ],
      "name": "HoneyHarvested",
      "type": "event"
    },
    {
      "anonymous": false,
      "inputs": [
        {
          "indexed": true,
          "internalType": "address",
          "name": "previousOwner",
          "type": "address"
        },
        {
          "indexed": true,
          "internalType": "address",
          "name": "newOwner",
          "type": "address"
        }
      ],
      "name": "OwnershipTransferred",
      "type": "event"
    },
    {
      "anonymous": false,
      "inputs": [
        {
          "indexed": true,
          "internalType": "address",
          "name": "buyer",
          "type": "address"
        },
        {
          "indexed": true,
          "internalType": "uint256",
          "name": "hiveId",
          "type": "uint256"
        },
        {
          "indexed": false,
          "internalType": "uint256",
          "name": "sharesAmount",
          "type": "uint256"
        }
      ],
      "name": "SharesBought",
      "type": "event"
    },
    {
      "anonymous": false,
      "inputs": [
        {
          "indexed": true,
          "internalType": "address",
          "name": "from",
          "type": "address"
        },
        {
          "indexed": true,
          "internalType": "address",
          "name": "to",
          "type": "address"
        },
        {
          "indexed": false,
          "internalType": "uint256",
          "name": "value",
          "type": "uint256"
        }
      ],
      "name": "Transfer",
      "type": "event"
    },
    {
      "inputs": [
        {
          "internalType": "address",
          "name": "owner",
          "type": "address"
        },
        {
          "internalType": "address",
          "name": "spender",
          "type": "address"
        }
      ],
      "name": "allowance",
      "outputs": [
        {
          "internalType": "uint256",
          "name": "",
          "type": "uint256"
        }
      ],
      "stateMutability": "view",
      "type": "function"
    },
    {
      "inputs": [
        {
          "internalType": "address",
          "name": "spender",
          "type": "address"
        },
        {
          "internalType": "uint256",
          "name": "amount",
          "type": "uint256"
        }
      ],
      "name": "approve",
      "outputs": [
        {
          "internalType": "bool",
          "name": "",
          "type": "bool"
        }
      ],
      "stateMutability": "nonpayable",
      "type": "function"
    },
    {
      "inputs": [
        {
          "internalType": "address",
          "name": "account",
          "type": "address"
        }
      ],
      "name": "balanceOf",
      "outputs": [
        {
          "internalType": "uint256",
          "name": "",
          "type": "uint256"
        }
      ],
      "stateMutability": "view",
      "type": "function"
    },
    {
      "inputs": [],
      "name": "decimals",
      "outputs": [
        {
          "internalType": "uint8",
          "name": "",
          "type": "uint8"
        }
      ],
      "stateMutability": "view",
      "type": "function"
    },
    {
      "inputs": [
        {
          "internalType": "address",
          "name": "spender",
          "type": "address"
        },
        {
          "internalType": "uint256",
          "name": "subtractedValue",
          "type": "uint256"
        }
      ],
      "name": "decreaseAllowance",
      "outputs": [
        {
          "internalType": "bool",
          "name": "",
          "type": "bool"
        }
      ],
      "stateMutability": "nonpayable",
      "type": "function"
    },
    {
      "inputs": [
        {
          "internalType": "uint256",
          "name": "",
          "type": "uint256"
        }
      ],
      "name": "hives",
      "outputs": [
        {
          "internalType": "uint256",
          "name": "id",
          "type": "uint256"
        },
        {
          "internalType": "uint256",
          "name": "sharesTotal",
          "type": "uint256"
        },
        {
          "internalType": "uint256",
          "name": "sharesSold",
          "type": "uint256"
        },
        {
          "internalType": "uint256",
          "name": "honeyBalance",
          "type": "uint256"
        }
      ],
      "stateMutability": "view",
      "type": "function"
    },
    {
      "inputs": [],
      "name": "honeyPrice",
      "outputs": [
        {
          "internalType": "uint256",
          "name": "",
          "type": "uint256"
        }
      ],
      "stateMutability": "view",
      "type": "function"
    },
    {
      "inputs": [],
      "name": "honeyProducedPerHive",
      "outputs": [
        {
          "internalType": "uint256",
          "name": "",
          "type": "uint256"
        }
      ],
      "stateMutability": "view",
      "type": "function"
    },
    {
      "inputs": [
        {
          "internalType": "address",
          "name": "spender",
          "type": "address"
        },
        {
          "internalType": "uint256",
          "name": "addedValue",
          "type": "uint256"
        }
      ],
      "name": "increaseAllowance",
      "outputs": [
        {
          "internalType": "bool",
          "name": "",
          "type": "bool"
        }
      ],
      "stateMutability": "nonpayable",
      "type": "function"
    },
    {
      "inputs": [],
      "name": "name",
      "outputs": [
        {
          "internalType": "string",
          "name": "",
          "type": "string"
        }
      ],
      "stateMutability": "view",
      "type": "function"
    },
    {
      "inputs": [],
      "name": "owner",
      "outputs": [
        {
          "internalType": "address",
          "name": "",
          "type": "address"
        }
      ],
      "stateMutability": "view",
      "type": "function"
    },
    {
      "inputs": [],
      "name": "renounceOwnership",
      "outputs": [],
      "stateMutability": "nonpayable",
      "type": "function"
    },
    {
      "inputs": [],
      "name": "symbol",
      "outputs": [
        {
          "internalType": "string",
          "name": "",
          "type": "string"
        }
      ],
      "stateMutability": "view",
      "type": "function"
    },
    {
      "inputs": [],
      "name": "totalHives",
      "outputs": [
        {
          "internalType": "uint256",
          "name": "",
          "type": "uint256"
        }
      ],
      "stateMutability": "view",
      "type": "function"
    },
    {
      "inputs": [],
      "name": "totalSupply",
      "outputs": [
        {
          "internalType": "uint256",
          "name": "",
          "type": "uint256"
        }
      ],
      "stateMutability": "view",
      "type": "function"
    },
    {
      "inputs": [
        {
          "internalType": "address",
          "name": "to",
          "type": "address"
        },
        {
          "internalType": "uint256",
          "name": "amount",
          "type": "uint256"
        }
      ],
      "name": "transfer",
      "outputs": [
        {
          "internalType": "bool",
          "name": "",
          "type": "bool"
        }
      ],
      "stateMutability": "nonpayable",
      "type": "function"
    },
    {
      "inputs": [
        {
          "internalType": "address",
          "name": "from",
          "type": "address"
        },
        {
          "internalType": "address",
          "name": "to",
          "type": "address"
        },
        {
          "internalType": "uint256",
          "name": "amount",
          "type": "uint256"
        }
      ],
      "name": "transferFrom",
      "outputs": [
        {
          "internalType": "bool",
          "name": "",
          "type": "bool"
        }
      ],
      "stateMutability": "nonpayable",
      "type": "function"
    },
    {
      "inputs": [
        {
          "internalType": "address",
          "name": "newOwner",
          "type": "address"
        }
      ],
      "name": "transferOwnership",
      "outputs": [],
      "stateMutability": "nonpayable",
      "type": "function"
    },
    {
      "inputs": [
        {
          "internalType": "address",
          "name": "",
          "type": "address"
        },
        {
          "internalType": "uint256",
          "name": "",
          "type": "uint256"
        }
      ],
      "name": "userHiveShares",
      "outputs": [
        {
          "internalType": "uint256",
          "name": "",
          "type": "uint256"
        }
      ],
      "stateMutability": "view",
      "type": "function"
    },
    {
      "inputs": [
        {
          "internalType": "address",
          "name": "account",
          "type": "address"
        },
        {
          "internalType": "uint256",
          "name": "amount",
          "type": "uint256"
        }
      ],
      "name": "mint",
      "outputs": [],
      "stateMutability": "nonpayable",
      "type": "function"
    },
    {
      "inputs": [
        {
          "internalType": "uint256",
          "name": "sharesTotal",
          "type": "uint256"
        }
      ],
      "name": "createHive",
      "outputs": [],
      "stateMutability": "nonpayable",
      "type": "function"
    },
    {
      "inputs": [
        {
          "internalType": "uint256",
          "name": "hiveId",
          "type": "uint256"
        },
        {
          "internalType": "uint256",
          "name": "sharesAmount",
          "type": "uint256"
        }
      ],
      "name": "buyShares",
      "outputs": [],
      "stateMutability": "payable",
      "type": "function"
    },
    {
      "inputs": [
        {
          "internalType": "uint256",
          "name": "hiveId",
          "type": "uint256"
        }
      ],
      "name": "harvestHoney",
      "outputs": [],
      "stateMutability": "nonpayable",
      "type": "function"
    },
    {
      "inputs": [
        {
          "internalType": "uint256",
          "name": "hiveId",
          "type": "uint256"
        },
        {
          "internalType": "enum GiBeeToken.DistributionChoice",
          "name": "choice",
          "type": "uint8"
        }
      ],
      "name": "receiveDistribution",
      "outputs": [],
      "stateMutability": "nonpayable",
      "type": "function"
    }
  ],
  "bytecode": "0x6080604052601e600755661772aa3f8480006008553480156200002157600080fd5b5060405162002f7238038062002f72833981810160405281019062000047919062000455565b6040518060400160405280600a81526020017f4769426565546f6b656e000000000000000000000000000000000000000000008152506040518060400160405280600381526020017f47425400000000000000000000000000000000000000000000000000000000008152508160039080519060200190620000cb92919062000365565b508060049080519060200190620000e492919062000365565b50505062000107620000fb6200012060201b60201c565b6200012860201b60201c565b620001193382620001ee60201b60201c565b5062000628565b600033905090565b6000600560009054906101000a900473ffffffffffffffffffffffffffffffffffffffff16905081600560006101000a81548173ffffffffffffffffffffffffffffffffffffffff021916908373ffffffffffffffffffffffffffffffffffffffff1602179055508173ffffffffffffffffffffffffffffffffffffffff168173ffffffffffffffffffffffffffffffffffffffff167f8be0079c531659141344cd1fd0a4f28419497f9722a3daafe3b4186f6b6457e060405160405180910390a35050565b600073ffffffffffffffffffffffffffffffffffffffff168273ffffffffffffffffffffffffffffffffffffffff160362000260576040517f08c379a00000000000000000000000000000000000000000000000000000000081526004016200025790620004e8565b60405180910390fd5b62000274600083836200035b60201b60201c565b806002600082825462000288919062000539565b92505081905550806000808473ffffffffffffffffffffffffffffffffffffffff1673ffffffffffffffffffffffffffffffffffffffff168152602001908152602001600020600082825401925050819055508173ffffffffffffffffffffffffffffffffffffffff16600073ffffffffffffffffffffffffffffffffffffffff167fddf252ad1be2c89b69c2b068fc378daa952ba7f163c4a11628f55a4df523b3ef836040516200033b9190620005a7565b60405180910390a362000357600083836200036060201b60201c565b5050565b505050565b505050565b8280546200037390620005f3565b90600052602060002090601f016020900481019282620003975760008555620003e3565b82601f10620003b257805160ff1916838001178555620003e3565b82800160010185558215620003e3579182015b82811115620003e2578251825591602001919060010190620003c5565b5b509050620003f29190620003f6565b5090565b5b8082111562000411576000816000905550600101620003f7565b5090565b600080fd5b6000819050919050565b6200042f816200041a565b81146200043b57600080fd5b50565b6000815190506200044f8162000424565b92915050565b6000602082840312156200046e576200046d62000415565b5b60006200047e848285016200043e565b91505092915050565b600082825260208201905092915050565b7f45524332303a206d696e7420746f20746865207a65726f206164647265737300600082015250565b6000620004d0601f8362000487565b9150620004dd8262000498565b602082019050919050565b600060208201905081810360008301526200050381620004c1565b9050919050565b7f4e487b7100000000000000000000000000000000000000000000000000000000600052601160045260246000fd5b600062000546826200041a565b915062000553836200041a565b9250827fffffffffffffffffffffffffffffffffffffffffffffffffffffffffffffffff038211156200058b576200058a6200050a565b5b828201905092915050565b620005a1816200041a565b82525050565b6000602082019050620005be600083018462000596565b92915050565b7f4e487b7100000000000000000000000000000000000000000000000000000000600052602260045260246000fd5b600060028204905060018216806200060c57607f821691505b602082108103620006225762000621620005c4565b5b50919050565b61293a80620006386000396000f3fe60806040526004361061014b5760003560e01c80634d105506116100b657806395d89b411161006f57806395d89b41146104a9578063a457c2d7146104d4578063a9059cbb14610511578063beebc5da1461054e578063dd62ed3e1461056a578063f2fde38b146105a75761014b565b80634d105506146103ad57806370a08231146103d8578063715018a6146104155780637f7cfc111461042c5780638616fbeb146104555780638da5cb5b1461047e5761014b565b8063313ce56711610108578063313ce5671461028b5780633932de38146102b657806339509351146102df5780633c3775471461031c57806340c10f19146103475780634b7300ef146103705761014b565b806302afaed21461015057806306fdde031461017b578063095ea7b3146101a657806311e872f3146101e357806318160ddd1461022357806323b872dd1461024e575b600080fd5b34801561015c57600080fd5b506101656105d0565b6040516101729190611ab2565b60405180910390f35b34801561018757600080fd5b506101906105d6565b60405161019d9190611b66565b60405180910390f35b3480156101b257600080fd5b506101cd60048036038101906101c89190611c17565b610668565b6040516101da9190611c72565b60405180910390f35b3480156101ef57600080fd5b5061020a60048036038101906102059190611c8d565b61068b565b60405161021a9493929190611cba565b60405180910390f35b34801561022f57600080fd5b506102386106bb565b6040516102459190611ab2565b60405180910390f35b34801561025a57600080fd5b5061027560048036038101906102709190611cff565b6106c5565b6040516102829190611c72565b60405180910390f35b34801561029757600080fd5b506102a06106f4565b6040516102ad9190611d6e565b60405180910390f35b3480156102c257600080fd5b506102dd60048036038101906102d89190611dae565b6106fd565b005b3480156102eb57600080fd5b5061030660048036038101906103019190611c17565b610ad1565b6040516103139190611c72565b60405180910390f35b34801561032857600080fd5b50610331610b08565b60405161033e9190611ab2565b60405180910390f35b34801561035357600080fd5b5061036e60048036038101906103699190611c17565b610b0e565b005b34801561037c57600080fd5b5061039760048036038101906103929190611c17565b610b24565b6040516103a49190611ab2565b60405180910390f35b3480156103b957600080fd5b506103c2610b49565b6040516103cf9190611ab2565b60405180910390f35b3480156103e457600080fd5b506103ff60048036038101906103fa9190611dee565b610b4f565b60405161040c9190611ab2565b60405180910390f35b34801561042157600080fd5b5061042a610b97565b005b34801561043857600080fd5b50610453600480360381019061044e9190611c8d565b610bab565b005b34801561046157600080fd5b5061047c60048036038101906104779190611c8d565b610c6d565b005b34801561048a57600080fd5b50610493610d39565b6040516104a09190611e2a565b60405180910390f35b3480156104b557600080fd5b506104be610d63565b6040516104cb9190611b66565b60405180910390f35b3480156104e057600080fd5b506104fb60048036038101906104f69190611c17565b610df5565b6040516105089190611c72565b60405180910390f35b34801561051d57600080fd5b5061053860048036038101906105339190611c17565b610e6c565b6040516105459190611c72565b60405180910390f35b61056860048036038101906105639190611e45565b610e8f565b005b34801561057657600080fd5b50610591600480360381019061058c9190611e85565b6111c0565b60405161059e9190611ab2565b60405180910390f35b3480156105b357600080fd5b506105ce60048036038101906105c99190611dee565b611247565b005b60085481565b6060600380546105e590611ef4565b80601f016020809104026020016040519081016040528092919081815260200182805461061190611ef4565b801561065e5780601f106106335761010080835404028352916020019161065e565b820191906000526020600020905b81548152906001019060200180831161064157829003601f168201915b5050505050905090565b6000806106736112ca565b90506106808185856112d2565b600191505092915050565b60096020528060005260406000206000915090508060000154908060010154908060020154908060030154905084565b6000600254905090565b6000806106d06112ca565b90506106dd85828561149b565b6106e8858585611527565b60019150509392505050565b60006012905090565b6000600a60003373ffffffffffffffffffffffffffffffffffffffff1673ffffffffffffffffffffffffffffffffffffffff16815260200190815260200160002060008481526020019081526020016000205411610790576040517f08c379a000000000000000000000000000000000000000000000000000000000815260040161078790611f71565b60405180910390fd5b6000600a60003373ffffffffffffffffffffffffffffffffffffffff1673ffffffffffffffffffffffffffffffffffffffff168152602001908152602001600020600084815260200190815260200160002054905060008060028111156107fa576107f9611f91565b5b83600281111561080d5761080c611f91565b5b036108ff57610863600960008681526020019081526020016000206002015461085584600960008981526020019081526020016000206003015461179d90919063ffffffff16565b6117b390919063ffffffff16565b905061088e8160096000878152602001908152602001600020600301546117c990919063ffffffff16565b6009600086815260200190815260200160002060030181905550833373ffffffffffffffffffffffffffffffffffffffff167fa20c8ff737153c2a7071d43a0e8605358ca11dbc1cf99d2a988e8d5c600cd40e8360006040516108f2929190612008565b60405180910390a3610a75565b6001600281111561091357610912611f91565b5b83600281111561092657610925611f91565b5b0361099757819050610940610939610d39565b3383611527565b833373ffffffffffffffffffffffffffffffffffffffff167fa20c8ff737153c2a7071d43a0e8605358ca11dbc1cf99d2a988e8d5c600cd40e83600160405161098a929190612008565b60405180910390a3610a74565b6002808111156109aa576109a9611f91565b5b8360028111156109bd576109bc611f91565b5b03610a73576109d76008548361179d90919063ffffffff16565b90503373ffffffffffffffffffffffffffffffffffffffff166108fc829081150290604051600060405180830381858888f19350505050158015610a1f573d6000803e3d6000fd5b50833373ffffffffffffffffffffffffffffffffffffffff167fa20c8ff737153c2a7071d43a0e8605358ca11dbc1cf99d2a988e8d5c600cd40e836002604051610a6a929190612008565b60405180910390a35b5b5b6000600a60003373ffffffffffffffffffffffffffffffffffffffff1673ffffffffffffffffffffffffffffffffffffffff16815260200190815260200160002060008681526020019081526020016000208190555050505050565b600080610adc6112ca565b9050610afd818585610aee85896111c0565b610af89190612060565b6112d2565b600191505092915050565b60065481565b610b166117df565b610b20828261185d565b5050565b600a602052816000526040600020602052806000526040600020600091509150505481565b60075481565b60008060008373ffffffffffffffffffffffffffffffffffffffff1673ffffffffffffffffffffffffffffffffffffffff168152602001908152602001600020549050919050565b610b9f6117df565b610ba960006119b3565b565b610bb36117df565b60066000815480929190610bc6906120b6565b919050555060405180608001604052806006548152602001828152602001600081526020016000815250600960006006548152602001908152602001600020600082015181600001556020820151816001015560408201518160020155606082015181600301559050506006547fbb6ddab8ab56e6c30bacf06acfacb7f6b159a7b61643cd50bfc59b99ed18d53e82604051610c629190611ab2565b60405180910390a250565b610c756117df565b600081118015610c8757506006548111155b610cc6576040517f08c379a0000000000000000000000000000000000000000000000000000000008152600401610cbd9061214a565b60405180910390fd5b60006009600083815260200190815260200160002060030154905060006009600084815260200190815260200160002060030181905550817fe797f363a608b7325b49e39091bc15e115765f6704402eb4b55075dcba62bca482604051610d2d9190611ab2565b60405180910390a25050565b6000600560009054906101000a900473ffffffffffffffffffffffffffffffffffffffff16905090565b606060048054610d7290611ef4565b80601f0160208091040260200160405190810160405280929190818152602001828054610d9e90611ef4565b8015610deb5780601f10610dc057610100808354040283529160200191610deb565b820191906000526020600020905b815481529060010190602001808311610dce57829003601f168201915b5050505050905090565b600080610e006112ca565b90506000610e0e82866111c0565b905083811015610e53576040517f08c379a0000000000000000000000000000000000000000000000000000000008152600401610e4a906121dc565b60405180910390fd5b610e6082868684036112d2565b60019250505092915050565b600080610e776112ca565b9050610e84818585611527565b600191505092915050565b60008111610ed2576040517f08c379a0000000000000000000000000000000000000000000000000000000008152600401610ec99061226e565b60405180910390fd5b600082118015610ee457506006548211155b610f23576040517f08c379a0000000000000000000000000000000000000000000000000000000008152600401610f1a9061214a565b60405180910390fd5b6009600083815260200190815260200160002060010154811115610f7c576040517f08c379a0000000000000000000000000000000000000000000000000000000008152600401610f73906122da565b60405180910390fd5b610f916008548261179d90919063ffffffff16565b341015610fd3576040517f08c379a0000000000000000000000000000000000000000000000000000000008152600401610fca90612346565b60405180910390fd5b610ffc816009600085815260200190815260200160002060020154611a7990919063ffffffff16565b600960008481526020019081526020016000206002018190555061103f8160096000858152602001908152602001600020600101546117c990919063ffffffff16565b60096000848152602001908152602001600020600101819055506110bc81600a60003373ffffffffffffffffffffffffffffffffffffffff1673ffffffffffffffffffffffffffffffffffffffff168152602001908152602001600020600085815260200190815260200160002054611a7990919063ffffffff16565b600a60003373ffffffffffffffffffffffffffffffffffffffff1673ffffffffffffffffffffffffffffffffffffffff16815260200190815260200160002060008481526020019081526020016000208190555060006111276007548361179d90919063ffffffff16565b9050611152816009600086815260200190815260200160002060030154611a7990919063ffffffff16565b6009600085815260200190815260200160002060030181905550823373ffffffffffffffffffffffffffffffffffffffff167f2ac0c7a344c07faca0c8fb818361b688d571a347db8c184800fce2207531dd1e846040516111b39190611ab2565b60405180910390a3505050565b6000600160008473ffffffffffffffffffffffffffffffffffffffff1673ffffffffffffffffffffffffffffffffffffffff16815260200190815260200160002060008373ffffffffffffffffffffffffffffffffffffffff1673ffffffffffffffffffffffffffffffffffffffff16815260200190815260200160002054905092915050565b61124f6117df565b600073ffffffffffffffffffffffffffffffffffffffff168173ffffffffffffffffffffffffffffffffffffffff16036112be576040517f08c379a00000000000000000000000000000000000000000000000000000000081526004016112b5906123d8565b60405180910390fd5b6112c7816119b3565b50565b600033905090565b600073ffffffffffffffffffffffffffffffffffffffff168373ffffffffffffffffffffffffffffffffffffffff1603611341576040517f08c379a00000000000000000000000000000000000000000000000000000000081526004016113389061246a565b60405180910390fd5b600073ffffffffffffffffffffffffffffffffffffffff168273ffffffffffffffffffffffffffffffffffffffff16036113b0576040517f08c379a00000000000000000000000000000000000000000000000000000000081526004016113a7906124fc565b60405180910390fd5b80600160008573ffffffffffffffffffffffffffffffffffffffff1673ffffffffffffffffffffffffffffffffffffffff16815260200190815260200160002060008473ffffffffffffffffffffffffffffffffffffffff1673ffffffffffffffffffffffffffffffffffffffff168152602001908152602001600020819055508173ffffffffffffffffffffffffffffffffffffffff168373ffffffffffffffffffffffffffffffffffffffff167f8c5be1e5ebec7d5bd14f71427d1e84f3dd0314c0f7b2291e5b200ac8c7c3b9258360405161148e9190611ab2565b60405180910390a3505050565b60006114a784846111c0565b90507fffffffffffffffffffffffffffffffffffffffffffffffffffffffffffffffff81146115215781811015611513576040517f08c379a000000000000000000000000000000000000000000000000000000000815260040161150a90612568565b60405180910390fd5b61152084848484036112d2565b5b50505050565b600073ffffffffffffffffffffffffffffffffffffffff168373ffffffffffffffffffffffffffffffffffffffff1603611596576040517f08c379a000000000000000000000000000000000000000000000000000000000815260040161158d906125fa565b60405180910390fd5b600073ffffffffffffffffffffffffffffffffffffffff168273ffffffffffffffffffffffffffffffffffffffff1603611605576040517f08c379a00000000000000000000000000000000000000000000000000000000081526004016115fc9061268c565b60405180910390fd5b611610838383611a8f565b60008060008573ffffffffffffffffffffffffffffffffffffffff1673ffffffffffffffffffffffffffffffffffffffff16815260200190815260200160002054905081811015611696576040517f08c379a000000000000000000000000000000000000000000000000000000000815260040161168d9061271e565b60405180910390fd5b8181036000808673ffffffffffffffffffffffffffffffffffffffff1673ffffffffffffffffffffffffffffffffffffffff16815260200190815260200160002081905550816000808573ffffffffffffffffffffffffffffffffffffffff1673ffffffffffffffffffffffffffffffffffffffff168152602001908152602001600020600082825401925050819055508273ffffffffffffffffffffffffffffffffffffffff168473ffffffffffffffffffffffffffffffffffffffff167fddf252ad1be2c89b69c2b068fc378daa952ba7f163c4a11628f55a4df523b3ef846040516117849190611ab2565b60405180910390a3611797848484611a94565b50505050565b600081836117ab919061273e565b905092915050565b600081836117c191906127c7565b905092915050565b600081836117d791906127f8565b905092915050565b6117e76112ca565b73ffffffffffffffffffffffffffffffffffffffff16611805610d39565b73ffffffffffffffffffffffffffffffffffffffff161461185b576040517f08c379a000000000000000000000000000000000000000000000000000000000815260040161185290612878565b60405180910390fd5b565b600073ffffffffffffffffffffffffffffffffffffffff168273ffffffffffffffffffffffffffffffffffffffff16036118cc576040517f08c379a00000000000000000000000000000000000000000000000000000000081526004016118c3906128e4565b60405180910390fd5b6118d860008383611a8f565b80600260008282546118ea9190612060565b92505081905550806000808473ffffffffffffffffffffffffffffffffffffffff1673ffffffffffffffffffffffffffffffffffffffff168152602001908152602001600020600082825401925050819055508173ffffffffffffffffffffffffffffffffffffffff16600073ffffffffffffffffffffffffffffffffffffffff167fddf252ad1be2c89b69c2b068fc378daa952ba7f163c4a11628f55a4df523b3ef8360405161199b9190611ab2565b60405180910390a36119af60008383611a94565b5050565b6000600560009054906101000a900473ffffffffffffffffffffffffffffffffffffffff16905081600560006101000a81548173ffffffffffffffffffffffffffffffffffffffff021916908373ffffffffffffffffffffffffffffffffffffffff1602179055508173ffffffffffffffffffffffffffffffffffffffff168173ffffffffffffffffffffffffffffffffffffffff167f8be0079c531659141344cd1fd0a4f28419497f9722a3daafe3b4186f6b6457e060405160405180910390a35050565b60008183611a879190612060565b905092915050565b505050565b505050565b6000819050919050565b611aac81611a99565b82525050565b6000602082019050611ac76000830184611aa3565b92915050565b600081519050919050565b600082825260208201905092915050565b60005b83811015611b07578082015181840152602081019050611aec565b83811115611b16576000848401525b50505050565b6000601f19601f8301169050919050565b6000611b3882611acd565b611b428185611ad8565b9350611b52818560208601611ae9565b611b5b81611b1c565b840191505092915050565b60006020820190508181036000830152611b808184611b2d565b905092915050565b600080fd5b600073ffffffffffffffffffffffffffffffffffffffff82169050919050565b6000611bb882611b8d565b9050919050565b611bc881611bad565b8114611bd357600080fd5b50565b600081359050611be581611bbf565b92915050565b611bf481611a99565b8114611bff57600080fd5b50565b600081359050611c1181611beb565b92915050565b60008060408385031215611c2e57611c2d611b88565b5b6000611c3c85828601611bd6565b9250506020611c4d85828601611c02565b9150509250929050565b60008115159050919050565b611c6c81611c57565b82525050565b6000602082019050611c876000830184611c63565b92915050565b600060208284031215611ca357611ca2611b88565b5b6000611cb184828501611c02565b91505092915050565b6000608082019050611ccf6000830187611aa3565b611cdc6020830186611aa3565b611ce96040830185611aa3565b611cf66060830184611aa3565b95945050505050565b600080600060608486031215611d1857611d17611b88565b5b6000611d2686828701611bd6565b9350506020611d3786828701611bd6565b9250506040611d4886828701611c02565b9150509250925092565b600060ff82169050919050565b611d6881611d52565b82525050565b6000602082019050611d836000830184611d5f565b92915050565b60038110611d9657600080fd5b50565b600081359050611da881611d89565b92915050565b60008060408385031215611dc557611dc4611b88565b5b6000611dd385828601611c02565b9250506020611de485828601611d99565b9150509250929050565b600060208284031215611e0457611e03611b88565b5b6000611e1284828501611bd6565b91505092915050565b611e2481611bad565b82525050565b6000602082019050611e3f6000830184611e1b565b92915050565b60008060408385031215611e5c57611e5b611b88565b5b6000611e6a85828601611c02565b9250506020611e7b85828601611c02565b9150509250929050565b60008060408385031215611e9c57611e9b611b88565b5b6000611eaa85828601611bd6565b9250506020611ebb85828601611bd6565b9150509250929050565b7f4e487b7100000000000000000000000000000000000000000000000000000000600052602260045260246000fd5b60006002820490506001821680611f0c57607f821691505b602082108103611f1f57611f1e611ec5565b5b50919050565b7f4e6f20736861726573206f776e65640000000000000000000000000000000000600082015250565b6000611f5b600f83611ad8565b9150611f6682611f25565b602082019050919050565b60006020820190508181036000830152611f8a81611f4e565b9050919050565b7f4e487b7100000000000000000000000000000000000000000000000000000000600052602160045260246000fd5b60038110611fd157611fd0611f91565b5b50565b6000819050611fe282611fc0565b919050565b6000611ff282611fd4565b9050919050565b61200281611fe7565b82525050565b600060408201905061201d6000830185611aa3565b61202a6020830184611ff9565b9392505050565b7f4e487b7100000000000000000000000000000000000000000000000000000000600052601160045260246000fd5b600061206b82611a99565b915061207683611a99565b9250827fffffffffffffffffffffffffffffffffffffffffffffffffffffffffffffffff038211156120ab576120aa612031565b5b828201905092915050565b60006120c182611a99565b91507fffffffffffffffffffffffffffffffffffffffffffffffffffffffffffffffff82036120f3576120f2612031565b5b600182019050919050565b7f496e76616c696420686976652049440000000000000000000000000000000000600082015250565b6000612134600f83611ad8565b915061213f826120fe565b602082019050919050565b6000602082019050818103600083015261216381612127565b9050919050565b7f45524332303a2064656372656173656420616c6c6f77616e63652062656c6f7760008201527f207a65726f000000000000000000000000000000000000000000000000000000602082015250565b60006121c6602583611ad8565b91506121d18261216a565b604082019050919050565b600060208201905081810360008301526121f5816121b9565b9050919050565b7f53686172657320616d6f756e74206d757374206265206772656174657220746860008201527f616e207a65726f00000000000000000000000000000000000000000000000000602082015250565b6000612258602783611ad8565b9150612263826121fc565b604082019050919050565b600060208201905081810360008301526122878161224b565b9050919050565b7f4e6f7420656e6f7567682073686172657320617661696c61626c650000000000600082015250565b60006122c4601b83611ad8565b91506122cf8261228e565b602082019050919050565b600060208201905081810360008301526122f3816122b7565b9050919050565b7f496e73756666696369656e74207061796d656e74000000000000000000000000600082015250565b6000612330601483611ad8565b915061233b826122fa565b602082019050919050565b6000602082019050818103600083015261235f81612323565b9050919050565b7f4f776e61626c653a206e6577206f776e657220697320746865207a65726f206160008201527f6464726573730000000000000000000000000000000000000000000000000000602082015250565b60006123c2602683611ad8565b91506123cd82612366565b604082019050919050565b600060208201905081810360008301526123f1816123b5565b9050919050565b7f45524332303a20617070726f76652066726f6d20746865207a65726f2061646460008201527f7265737300000000000000000000000000000000000000000000000000000000602082015250565b6000612454602483611ad8565b915061245f826123f8565b604082019050919050565b6000602082019050818103600083015261248381612447565b9050919050565b7f45524332303a20617070726f766520746f20746865207a65726f20616464726560008201527f7373000000000000000000000000000000000000000000000000000000000000602082015250565b60006124e6602283611ad8565b91506124f18261248a565b604082019050919050565b60006020820190508181036000830152612515816124d9565b9050919050565b7f45524332303a20696e73756666696369656e7420616c6c6f77616e6365000000600082015250565b6000612552601d83611ad8565b915061255d8261251c565b602082019050919050565b6000602082019050818103600083015261258181612545565b9050919050565b7f45524332303a207472616e736665722066726f6d20746865207a65726f20616460008201527f6472657373000000000000000000000000000000000000000000000000000000602082015250565b60006125e4602583611ad8565b91506125ef82612588565b604082019050919050565b60006020820190508181036000830152612613816125d7565b9050919050565b7f45524332303a207472616e7366657220746f20746865207a65726f206164647260008201527f6573730000000000000000000000000000000000000000000000000000000000602082015250565b6000612676602383611ad8565b91506126818261261a565b604082019050919050565b600060208201905081810360008301526126a581612669565b9050919050565b7f45524332303a207472616e7366657220616d6f756e742065786365656473206260008201527f616c616e63650000000000000000000000000000000000000000000000000000602082015250565b6000612708602683611ad8565b9150612713826126ac565b604082019050919050565b60006020820190508181036000830152612737816126fb565b9050919050565b600061274982611a99565b915061275483611a99565b9250817fffffffffffffffffffffffffffffffffffffffffffffffffffffffffffffffff048311821515161561278d5761278c612031565b5b828202905092915050565b7f4e487b7100000000000000000000000000000000000000000000000000000000600052601260045260246000fd5b60006127d282611a99565b91506127dd83611a99565b9250826127ed576127ec612798565b5b828204905092915050565b600061280382611a99565b915061280e83611a99565b92508282101561282157612820612031565b5b828203905092915050565b7f4f776e61626c653a2063616c6c6572206973206e6f7420746865206f776e6572600082015250565b6000612862602083611ad8565b915061286d8261282c565b602082019050919050565b6000602082019050818103600083015261289181612855565b9050919050565b7f45524332303a206d696e7420746f20746865207a65726f206164647265737300600082015250565b60006128ce601f83611ad8565b91506128d982612898565b602082019050919050565b600060208201905081810360008301526128fd816128c1565b905091905056fea264697066735822122047a6e1e083a3ae5857158f93baab111ae27ae0dbe3b430efc40c36491600307964736f6c634300080d0033",
  "immutableReferences": {},
  "source": "// SPDX-License-Identifier: MIT\r\npragma solidity ^0.8.0;\r\n\r\nimport \"@openzeppelin/contracts/token/ERC20/ERC20.sol\";\r\nimport \"@openzeppelin/contracts/access/Ownable.sol\";\r\nimport \"@openzeppelin/contracts/utils/math/SafeMath.sol\";\r\n\r\ncontract GiBeeToken is ERC20, Ownable {\r\n    using SafeMath for uint256;\r\n\r\n    uint256 public totalHives;\r\n    uint256 public honeyProducedPerHive = 30; // Quantit de miel produite par ruche ( personnaliser)\r\n    uint256 public honeyPrice = 0.0066 ether; // Prix du miel en wei ( personnaliser)\r\n\r\n    enum DistributionChoice { Honey, Tokens, Ether }\r\n    \r\n    struct Hive {\r\n        uint256 id;\r\n        uint256 sharesTotal;\r\n        uint256 sharesSold;\r\n        uint256 honeyBalance;\r\n    }\r\n\r\n    mapping(uint256 => Hive) public hives;\r\n    mapping(address => mapping(uint256 => uint256)) public userHiveShares;\r\n\r\n    event HiveCreated(uint256 indexed hiveId, uint256 sharesTotal);\r\n    event SharesBought(address indexed buyer, uint256 indexed hiveId, uint256 sharesAmount);\r\n    event HoneyHarvested(uint256 indexed hiveId, uint256 honeyAmount);\r\n    event DistributionReceived(address indexed user, uint256 indexed hiveId, uint256 amount, DistributionChoice choice);\r\n\r\n    constructor(uint256 initialSupply) ERC20(\"GiBeeToken\", \"GBT\") {\r\n        _mint(msg.sender, initialSupply);\r\n    }\r\n\r\n    function mint(address account, uint256 amount) external onlyOwner {\r\n        _mint(account, amount);\r\n    }\r\n\r\n    function createHive(uint256 sharesTotal) external onlyOwner {\r\n        totalHives++;\r\n        hives[totalHives] = Hive(totalHives, sharesTotal, 0, 0);\r\n        emit HiveCreated(totalHives, sharesTotal);\r\n    }\r\n\r\n    function buyShares(uint256 hiveId, uint256 sharesAmount) external payable {\r\n        require(sharesAmount > 0, \"Shares amount must be greater than zero\");\r\n        require(hiveId > 0 && hiveId <= totalHives, \"Invalid hive ID\");\r\n        require(sharesAmount <= hives[hiveId].sharesTotal, \"Not enough shares available\");\r\n        require(msg.value >= sharesAmount.mul(honeyPrice), \"Insufficient payment\");\r\n\r\n        hives[hiveId].sharesSold = hives[hiveId].sharesSold.add(sharesAmount);\r\n        hives[hiveId].sharesTotal = hives[hiveId].sharesTotal.sub(sharesAmount);\r\n        userHiveShares[msg.sender][hiveId] = userHiveShares[msg.sender][hiveId].add(sharesAmount);\r\n\r\n        uint256 honeyAmount = sharesAmount.mul(honeyProducedPerHive);\r\n        hives[hiveId].honeyBalance = hives[hiveId].honeyBalance.add(honeyAmount);\r\n\r\n        emit SharesBought(msg.sender, hiveId, sharesAmount);\r\n    }\r\n\r\n    function harvestHoney(uint256 hiveId) external onlyOwner {\r\n        require(hiveId > 0 && hiveId <= totalHives, \"Invalid hive ID\");\r\n\r\n        uint256 honeyAmount = hives[hiveId].honeyBalance;\r\n        hives[hiveId].honeyBalance = 0;\r\n\r\n        emit HoneyHarvested(hiveId, honeyAmount);\r\n    }\r\n\r\n    function receiveDistribution(uint256 hiveId, DistributionChoice choice) external {\r\n        require(userHiveShares[msg.sender][hiveId] > 0, \"No shares owned\");\r\n\r\n        uint256 userShares = userHiveShares[msg.sender][hiveId];\r\n        uint256 amount;\r\n\r\n        if (choice == DistributionChoice.Honey) {\r\n            amount = hives[hiveId].honeyBalance.mul(userShares).div(hives[hiveId].sharesSold);\r\n            hives[hiveId].honeyBalance = hives[hiveId].honeyBalance.sub(amount);\r\n            emit DistributionReceived(msg.sender, hiveId, amount, DistributionChoice.Honey);\r\n        } else if (choice == DistributionChoice.Tokens) {\r\n            amount = userShares;\r\n            _transfer(owner(), msg.sender, amount);\r\n            emit DistributionReceived(msg.sender, hiveId, amount, DistributionChoice.Tokens);\r\n        } else if (choice == DistributionChoice.Ether) {\r\n            amount = userShares.mul(honeyPrice);\r\n            payable(msg.sender).transfer(amount);\r\n            emit DistributionReceived(msg.sender, hiveId, amount, DistributionChoice.Ether);\r\n        }\r\n\r\n        userHiveShares[msg.sender][hiveId] = 0;\r\n    }\r\n}\r\n",
  "sourcePath": "C:\\Users\\Ghofrane\\Desktop\\ProjetX\\CryptoProjects\\BeeToken\\contracts\\GiBeeToken.sol",
  "compiler": {
    "name": "solc",
    "version": "0.8.13+commit.abaa5c0e.Emscripten.clang"
  },
  "schemaVersion": "3.4.16",
  "updatedAt": "2024-07-24T00:14:18.135Z",
  "devdoc": {
    "kind": "dev",
    "methods": {
      "allowance(address,address)": {
        "details": "See {IERC20-allowance}."
      },
      "approve(address,uint256)": {
        "details": "See {IERC20-approve}. NOTE: If `amount` is the maximum `uint256`, the allowance is not updated on `transferFrom`. This is semantically equivalent to an infinite approval. Requirements: - `spender` cannot be the zero address."
      },
      "balanceOf(address)": {
        "details": "See {IERC20-balanceOf}."
      },
      "decimals()": {
        "details": "Returns the number of decimals used to get its user representation. For example, if `decimals` equals `2`, a balance of `505` tokens should be displayed to a user as `5.05` (`505 / 10 ** 2`). Tokens usually opt for a value of 18, imitating the relationship between Ether and Wei. This is the default value returned by this function, unless it's overridden. NOTE: This information is only used for _display_ purposes: it in no way affects any of the arithmetic of the contract, including {IERC20-balanceOf} and {IERC20-transfer}."
      },
      "decreaseAllowance(address,uint256)": {
        "details": "Atomically decreases the allowance granted to `spender` by the caller. This is an alternative to {approve} that can be used as a mitigation for problems described in {IERC20-approve}. Emits an {Approval} event indicating the updated allowance. Requirements: - `spender` cannot be the zero address. - `spender` must have allowance for the caller of at least `subtractedValue`."
      },
      "increaseAllowance(address,uint256)": {
        "details": "Atomically increases the allowance granted to `spender` by the caller. This is an alternative to {approve} that can be used as a mitigation for problems described in {IERC20-approve}. Emits an {Approval} event indicating the updated allowance. Requirements: - `spender` cannot be the zero address."
      },
      "name()": {
        "details": "Returns the name of the token."
      },
      "owner()": {
        "details": "Returns the address of the current owner."
      },
      "renounceOwnership()": {
        "details": "Leaves the contract without owner. It will not be possible to call `onlyOwner` functions. Can only be called by the current owner. NOTE: Renouncing ownership will leave the contract without an owner, thereby disabling any functionality that is only available to the owner."
      },
      "symbol()": {
        "details": "Returns the symbol of the token, usually a shorter version of the name."
      },
      "totalSupply()": {
        "details": "See {IERC20-totalSupply}."
      },
      "transfer(address,uint256)": {
        "details": "See {IERC20-transfer}. Requirements: - `to` cannot be the zero address. - the caller must have a balance of at least `amount`."
      },
      "transferFrom(address,address,uint256)": {
        "details": "See {IERC20-transferFrom}. Emits an {Approval} event indicating the updated allowance. This is not required by the EIP. See the note at the beginning of {ERC20}. NOTE: Does not update the allowance if the current allowance is the maximum `uint256`. Requirements: - `from` and `to` cannot be the zero address. - `from` must have a balance of at least `amount`. - the caller must have allowance for ``from``'s tokens of at least `amount`."
      },
      "transferOwnership(address)": {
        "details": "Transfers ownership of the contract to a new account (`newOwner`). Can only be called by the current owner."
      }
    },
    "version": 1
  },
  "userdoc": {
    "kind": "user",
    "methods": {},
    "version": 1
  }
}