{
  "contractName": "ICO",
  "abi": [
    {
      "inputs": [
        {
          "internalType": "contract GiBeeToken",
          "name": "_tokenContract",
          "type": "address"
        },
        {
          "internalType": "address payable",
          "name": "_wallet",
          "type": "address"
        },
        {
          "internalType": "uint256",
          "name": "_rate",
          "type": "uint256"
        }
      ],
      "stateMutability": "nonpayable",
      "type": "constructor"
    },
    {
      "anonymous": false,
      "inputs": [
        {
          "indexed": true,
          "internalType": "address",
          "name": "purchaser",
          "type": "address"
        },
        {
          "indexed": true,
          "internalType": "address",
          "name": "beneficiary",
          "type": "address"
        },
        {
          "indexed": false,
          "internalType": "uint256",
          "name": "value",
          "type": "uint256"
        },
        {
          "indexed": false,
          "internalType": "uint256",
          "name": "amount",
          "type": "uint256"
        }
      ],
      "name": "TokensPurchased",
      "type": "event"
    },
    {
      "inputs": [],
      "name": "rate",
      "outputs": [
        {
          "internalType": "uint256",
          "name": "",
          "type": "uint256"
        }
      ],
      "stateMutability": "view",
      "type": "function"
    },
    {
      "inputs": [],
      "name": "tokenContract",
      "outputs": [
        {
          "internalType": "contract GiBeeToken",
          "name": "",
          "type": "address"
        }
      ],
      "stateMutability": "view",
      "type": "function"
    },
    {
      "inputs": [],
      "name": "wallet",
      "outputs": [
        {
          "internalType": "address payable",
          "name": "",
          "type": "address"
        }
      ],
      "stateMutability": "view",
      "type": "function"
    },
    {
      "stateMutability": "payable",
      "type": "receive"
    },
    {
      "inputs": [
        {
          "internalType": "address",
          "name": "beneficiary",
          "type": "address"
        }
      ],
      "name": "buyTokens",
      "outputs": [],
      "stateMutability": "payable",
      "type": "function"
    }
  ],
  "bytecode": "0x60806040523480156200001157600080fd5b5060405162000e7b38038062000e7b8339818101604052810190620000379190620002f0565b600073ffffffffffffffffffffffffffffffffffffffff168373ffffffffffffffffffffffffffffffffffffffff1603620000a9576040517f08c379a0000000000000000000000000000000000000000000000000000000008152600401620000a090620003d3565b60405180910390fd5b600073ffffffffffffffffffffffffffffffffffffffff168273ffffffffffffffffffffffffffffffffffffffff16036200011b576040517f08c379a0000000000000000000000000000000000000000000000000000000008152600401620001129062000445565b60405180910390fd5b6000811162000161576040517f08c379a00000000000000000000000000000000000000000000000000000000081526004016200015890620004b7565b60405180910390fd5b826000806101000a81548173ffffffffffffffffffffffffffffffffffffffff021916908373ffffffffffffffffffffffffffffffffffffffff16021790555081600160006101000a81548173ffffffffffffffffffffffffffffffffffffffff021916908373ffffffffffffffffffffffffffffffffffffffff16021790555080600281905550505050620004d9565b600080fd5b600073ffffffffffffffffffffffffffffffffffffffff82169050919050565b60006200022482620001f7565b9050919050565b6000620002388262000217565b9050919050565b6200024a816200022b565b81146200025657600080fd5b50565b6000815190506200026a816200023f565b92915050565b60006200027d82620001f7565b9050919050565b6200028f8162000270565b81146200029b57600080fd5b50565b600081519050620002af8162000284565b92915050565b6000819050919050565b620002ca81620002b5565b8114620002d657600080fd5b50565b600081519050620002ea81620002bf565b92915050565b6000806000606084860312156200030c576200030b620001f2565b5b60006200031c8682870162000259565b93505060206200032f868287016200029e565b92505060406200034286828701620002d9565b9150509250925092565b600082825260208201905092915050565b7f546f6b656e20636f6e747261637420616464726573732063616e6e6f7420626560008201527f207a65726f000000000000000000000000000000000000000000000000000000602082015250565b6000620003bb6025836200034c565b9150620003c8826200035d565b604082019050919050565b60006020820190508181036000830152620003ee81620003ac565b9050919050565b7f57616c6c657420616464726573732063616e6e6f74206265207a65726f000000600082015250565b60006200042d601d836200034c565b91506200043a82620003f5565b602082019050919050565b6000602082019050818103600083015262000460816200041e565b9050919050565b7f52617465206d7573742062652067726561746572207468616e207a65726f0000600082015250565b60006200049f601e836200034c565b9150620004ac8262000467565b602082019050919050565b60006020820190508181036000830152620004d28162000490565b9050919050565b61099280620004e96000396000f3fe6080604052600436106100435760003560e01c80632c4e722e14610058578063521eb2731461008357806355a373d6146100ae578063ec8ac4d8146100d957610053565b3661005357610051336100f5565b005b600080fd5b34801561006457600080fd5b5061006d610408565b60405161007a9190610471565b60405180910390f35b34801561008f57600080fd5b5061009861040e565b6040516100a591906104cd565b60405180910390f35b3480156100ba57600080fd5b506100c3610434565b6040516100d09190610547565b60405180910390f35b6100f360048036038101906100ee91906105a5565b6100f5565b005b600073ffffffffffffffffffffffffffffffffffffffff168173ffffffffffffffffffffffffffffffffffffffff1603610164576040517f08c379a000000000000000000000000000000000000000000000000000000000815260040161015b90610655565b60405180910390fd5b600034116101a7576040517f08c379a000000000000000000000000000000000000000000000000000000000815260040161019e906106e7565b60405180910390fd5b6000600254346101b79190610736565b90508060008054906101000a900473ffffffffffffffffffffffffffffffffffffffff1673ffffffffffffffffffffffffffffffffffffffff166370a08231306040518263ffffffff1660e01b8152600401610213919061079f565b602060405180830381865afa158015610230573d6000803e3d6000fd5b505050506040513d601f19601f8201168201806040525081019061025491906107e6565b1015610295576040517f08c379a000000000000000000000000000000000000000000000000000000000815260040161028c90610885565b60405180910390fd5b60008054906101000a900473ffffffffffffffffffffffffffffffffffffffff1673ffffffffffffffffffffffffffffffffffffffff1663a9059cbb83836040518363ffffffff1660e01b81526004016102f09291906108a5565b6020604051808303816000875af115801561030f573d6000803e3d6000fd5b505050506040513d601f19601f820116820180604052508101906103339190610906565b508173ffffffffffffffffffffffffffffffffffffffff163373ffffffffffffffffffffffffffffffffffffffff167f6faf93231a456e552dbc9961f58d9713ee4f2e69d15f1975b050ef0911053a7b3484604051610393929190610933565b60405180910390a3600160009054906101000a900473ffffffffffffffffffffffffffffffffffffffff1673ffffffffffffffffffffffffffffffffffffffff166108fc349081150290604051600060405180830381858888f19350505050158015610403573d6000803e3d6000fd5b505050565b60025481565b600160009054906101000a900473ffffffffffffffffffffffffffffffffffffffff1681565b60008054906101000a900473ffffffffffffffffffffffffffffffffffffffff1681565b6000819050919050565b61046b81610458565b82525050565b60006020820190506104866000830184610462565b92915050565b600073ffffffffffffffffffffffffffffffffffffffff82169050919050565b60006104b78261048c565b9050919050565b6104c7816104ac565b82525050565b60006020820190506104e260008301846104be565b92915050565b6000819050919050565b600061050d6105086105038461048c565b6104e8565b61048c565b9050919050565b600061051f826104f2565b9050919050565b600061053182610514565b9050919050565b61054181610526565b82525050565b600060208201905061055c6000830184610538565b92915050565b600080fd5b60006105728261048c565b9050919050565b61058281610567565b811461058d57600080fd5b50565b60008135905061059f81610579565b92915050565b6000602082840312156105bb576105ba610562565b5b60006105c984828501610590565b91505092915050565b600082825260208201905092915050565b7f42656e656669636961727920616464726573732063616e6e6f74206265207a6560008201527f726f000000000000000000000000000000000000000000000000000000000000602082015250565b600061063f6022836105d2565b915061064a826105e3565b604082019050919050565b6000602082019050818103600083015261066e81610632565b9050919050565b7f53656e74204554482076616c7565206d7573742062652067726561746572207460008201527f68616e207a65726f000000000000000000000000000000000000000000000000602082015250565b60006106d16028836105d2565b91506106dc82610675565b604082019050919050565b60006020820190508181036000830152610700816106c4565b9050919050565b7f4e487b7100000000000000000000000000000000000000000000000000000000600052601160045260246000fd5b600061074182610458565b915061074c83610458565b9250817fffffffffffffffffffffffffffffffffffffffffffffffffffffffffffffffff048311821515161561078557610784610707565b5b828202905092915050565b61079981610567565b82525050565b60006020820190506107b46000830184610790565b92915050565b6107c381610458565b81146107ce57600080fd5b50565b6000815190506107e0816107ba565b92915050565b6000602082840312156107fc576107fb610562565b5b600061080a848285016107d1565b91505092915050565b7f4e6f7420656e6f75676820746f6b656e7320696e2074686520636f6e7472616360008201527f7400000000000000000000000000000000000000000000000000000000000000602082015250565b600061086f6021836105d2565b915061087a82610813565b604082019050919050565b6000602082019050818103600083015261089e81610862565b9050919050565b60006040820190506108ba6000830185610790565b6108c76020830184610462565b9392505050565b60008115159050919050565b6108e3816108ce565b81146108ee57600080fd5b50565b600081519050610900816108da565b92915050565b60006020828403121561091c5761091b610562565b5b600061092a848285016108f1565b91505092915050565b60006040820190506109486000830185610462565b6109556020830184610462565b939250505056fea26469706673582212200987213f55c18745c70dd7c047636db84432944ce94197a71b8a7ebf313b24e364736f6c634300080d0033",
  "immutableReferences": {},
  "source": "// SPDX-License-Identifier: MIT\r\npragma solidity ^0.8.0;\r\n\r\nimport \"./GiBeeToken.sol\"; // Importez le contrat BeeToken ERC20\r\n\r\ncontract ICO {\r\n    GiBeeToken public tokenContract;\r\n    address payable public wallet;\r\n    uint256 public rate;\r\n\r\n    event TokensPurchased(address indexed purchaser, address indexed beneficiary, uint256 value, uint256 amount);\r\n\r\n    constructor(GiBeeToken _tokenContract, address payable _wallet, uint256 _rate) {\r\n        require(address(_tokenContract) != address(0), \"Token contract address cannot be zero\");\r\n        require(_wallet != address(0), \"Wallet address cannot be zero\");\r\n        require(_rate > 0, \"Rate must be greater than zero\");\r\n\r\n        tokenContract = _tokenContract;\r\n        wallet = _wallet;\r\n        rate = _rate;\r\n    }\r\n\r\n    function buyTokens(address beneficiary) public payable {\r\n        require(beneficiary != address(0), \"Beneficiary address cannot be zero\");\r\n        require(msg.value > 0, \"Sent ETH value must be greater than zero\");\r\n\r\n        uint256 tokenAmount = msg.value * rate;\r\n        require(tokenContract.balanceOf(address(this)) >= tokenAmount, \"Not enough tokens in the contract\");\r\n\r\n        tokenContract.transfer(beneficiary, tokenAmount);\r\n\r\n        emit TokensPurchased(msg.sender, beneficiary, msg.value, tokenAmount);\r\n\r\n        wallet.transfer(msg.value);\r\n    }\r\n\r\n    receive() external payable {\r\n        buyTokens(msg.sender);\r\n    }\r\n}\r\n",
  "sourcePath": "C:\\Users\\Ghofrane\\Desktop\\ProjetX\\CryptoProjects\\BeeToken\\contracts\\ICO.sol",
  "compiler": {
    "name": "solc",
    "version": "0.8.13+commit.abaa5c0e.Emscripten.clang"
  },
  "schemaVersion": "3.4.16",
  "updatedAt": "2024-07-24T00:14:18.159Z",
  "devdoc": {
    "kind": "dev",
    "methods": {},
    "version": 1
  },
  "userdoc": {
    "kind": "user",
    "methods": {},
    "version": 1
  }
}